{
  "contractName": "Bookstore",
  "abi": [
    {
      "anonymous": false,
      "inputs": [
        {
          "indexed": false,
          "internalType": "bytes32",
          "name": "",
          "type": "bytes32"
        },
        {
          "indexed": false,
          "internalType": "string",
          "name": "",
          "type": "string"
        },
        {
          "indexed": false,
          "internalType": "address",
          "name": "",
          "type": "address"
        }
      ],
      "name": "bookCreated",
      "type": "event"
    },
    {
      "anonymous": false,
      "inputs": [
        {
          "indexed": false,
          "internalType": "bytes32",
          "name": "",
          "type": "bytes32"
        },
        {
          "indexed": false,
          "internalType": "uint256",
          "name": "",
          "type": "uint256"
        },
        {
          "indexed": false,
          "internalType": "address",
          "name": "",
          "type": "address"
        }
      ],
      "name": "chapterBought",
      "type": "event"
    },
    {
      "anonymous": false,
      "inputs": [
        {
          "indexed": false,
          "internalType": "bytes32",
          "name": "",
          "type": "bytes32"
        },
        {
          "indexed": false,
          "internalType": "uint256",
          "name": "",
          "type": "uint256"
        },
        {
          "indexed": false,
          "internalType": "string",
          "name": "",
          "type": "string"
        }
      ],
      "name": "chapterCreated",
      "type": "event"
    },
    {
      "inputs": [
        {
          "internalType": "bytes32",
          "name": "bookID",
          "type": "bytes32"
        }
      ],
      "name": "checkIfAuthor",
      "outputs": [
        {
          "internalType": "bool",
          "name": "",
          "type": "bool"
        }
      ],
      "stateMutability": "view",
      "type": "function",
      "constant": true
    },
    {
      "inputs": [
        {
          "internalType": "bytes32",
          "name": "bookID",
          "type": "bytes32"
        },
        {
          "internalType": "uint256",
          "name": "chapterID",
          "type": "uint256"
        }
      ],
      "name": "checkIfChapterOwned",
      "outputs": [
        {
          "internalType": "bool",
          "name": "",
          "type": "bool"
        }
      ],
      "stateMutability": "view",
      "type": "function",
      "constant": true
    },
    {
      "inputs": [
        {
          "internalType": "string",
          "name": "title",
          "type": "string"
        }
      ],
      "name": "authorBook",
      "outputs": [],
      "stateMutability": "nonpayable",
      "type": "function"
    },
    {
      "inputs": [
        {
          "internalType": "bytes32",
          "name": "bookID",
          "type": "bytes32"
        },
        {
          "internalType": "string",
          "name": "title",
          "type": "string"
        },
        {
          "internalType": "string",
          "name": "text",
          "type": "string"
        },
        {
          "internalType": "uint256",
          "name": "cost",
          "type": "uint256"
        }
      ],
      "name": "authorChapter",
      "outputs": [],
      "stateMutability": "nonpayable",
      "type": "function"
    },
    {
      "inputs": [
        {
          "internalType": "bytes32",
          "name": "bookID",
          "type": "bytes32"
        },
        {
          "internalType": "uint256",
          "name": "chapterID",
          "type": "uint256"
        }
      ],
      "name": "buyChapter",
      "outputs": [],
      "stateMutability": "payable",
      "type": "function",
      "payable": true
    },
    {
      "inputs": [],
      "name": "withdrawBalance",
      "outputs": [],
      "stateMutability": "payable",
      "type": "function",
      "payable": true
    },
    {
      "inputs": [
        {
          "internalType": "bytes32",
          "name": "bookID",
          "type": "bytes32"
        }
      ],
      "name": "getBookChapters",
      "outputs": [
        {
          "components": [
            {
              "internalType": "uint256",
              "name": "chapterID",
              "type": "uint256"
            },
            {
              "internalType": "string",
              "name": "title",
              "type": "string"
            },
            {
              "internalType": "string",
              "name": "text",
              "type": "string"
            },
            {
              "internalType": "uint256",
              "name": "cost",
              "type": "uint256"
            }
          ],
          "internalType": "struct Bookstore.Chapter[]",
          "name": "",
          "type": "tuple[]"
        }
      ],
      "stateMutability": "view",
      "type": "function",
      "constant": true
    },
    {
      "inputs": [
        {
          "internalType": "bytes32",
          "name": "bookID",
          "type": "bytes32"
        },
        {
          "internalType": "uint256",
          "name": "chapterID",
          "type": "uint256"
        }
      ],
      "name": "readChapter",
      "outputs": [
        {
          "internalType": "string",
          "name": "",
          "type": "string"
        },
        {
          "internalType": "string",
          "name": "",
          "type": "string"
        }
      ],
      "stateMutability": "view",
      "type": "function",
      "constant": true
    },
    {
      "inputs": [],
      "name": "getBooksAuthored",
      "outputs": [
        {
          "components": [
            {
              "internalType": "bytes32",
              "name": "bookID",
              "type": "bytes32"
            },
            {
              "internalType": "string",
              "name": "title",
              "type": "string"
            },
            {
              "components": [
                {
                  "internalType": "uint256",
                  "name": "chapterID",
                  "type": "uint256"
                },
                {
                  "internalType": "string",
                  "name": "title",
                  "type": "string"
                },
                {
                  "internalType": "string",
                  "name": "text",
                  "type": "string"
                },
                {
                  "internalType": "uint256",
                  "name": "cost",
                  "type": "uint256"
                }
              ],
              "internalType": "struct Bookstore.Chapter[]",
              "name": "chapters",
              "type": "tuple[]"
            },
            {
              "internalType": "address",
              "name": "author",
              "type": "address"
            }
          ],
          "internalType": "struct Bookstore.Books[]",
          "name": "",
          "type": "tuple[]"
        }
      ],
      "stateMutability": "view",
      "type": "function",
      "constant": true
    },
    {
      "inputs": [],
      "name": "getBalance",
      "outputs": [
        {
          "internalType": "uint256",
          "name": "",
          "type": "uint256"
        }
      ],
      "stateMutability": "view",
      "type": "function",
      "constant": true
    },
    {
      "inputs": [],
      "name": "getListOfBooks",
      "outputs": [
        {
          "components": [
            {
              "internalType": "bytes32",
              "name": "bookID",
              "type": "bytes32"
            },
            {
              "internalType": "string",
              "name": "title",
              "type": "string"
            },
            {
              "components": [
                {
                  "internalType": "uint256",
                  "name": "chapterID",
                  "type": "uint256"
                },
                {
                  "internalType": "string",
                  "name": "title",
                  "type": "string"
                },
                {
                  "internalType": "string",
                  "name": "text",
                  "type": "string"
                },
                {
                  "internalType": "uint256",
                  "name": "cost",
                  "type": "uint256"
                }
              ],
              "internalType": "struct Bookstore.Chapter[]",
              "name": "chapters",
              "type": "tuple[]"
            },
            {
              "internalType": "address",
              "name": "author",
              "type": "address"
            }
          ],
          "internalType": "struct Bookstore.Books[]",
          "name": "",
          "type": "tuple[]"
        }
      ],
      "stateMutability": "view",
      "type": "function",
      "constant": true
    }
  ],
  "bytecode": "0x608060405234801561001057600080fd5b5061251d806100206000396000f3fe60806040526004361061009c5760003560e01c80635fd8c710116100645780635fd8c710146101865780639dbd0a9a14610190578063b689ae55146101ac578063bc9cbaaf146101e9578063daeb494d14610226578063edbcd8ee146102515761009c565b806312065fe0146100a1578063274b5de9146100cc5780634e71e7511461010957806350ef5924146101325780635a3b15cd1461015d575b600080fd5b3480156100ad57600080fd5b506100b661028f565b6040516100c39190611773565b60405180910390f35b3480156100d857600080fd5b506100f360048036038101906100ee91906117d8565b6102d8565b60405161010091906119d0565b60405180910390f35b34801561011557600080fd5b50610130600480360381019061012b9190611b27565b610485565b005b34801561013e57600080fd5b50610147610627565b6040516101549190611d72565b60405180910390f35b34801561016957600080fd5b50610184600480360381019061017f9190611dc0565b610a1d565b005b61018e610bc2565b005b6101aa60048036038101906101a59190611e5f565b610c99565b005b3480156101b857600080fd5b506101d360048036038101906101ce9190611e5f565b610ff8565b6040516101e09190611eba565b60405180910390f35b3480156101f557600080fd5b50610210600480360381019061020b91906117d8565b6110fb565b60405161021d9190611eba565b60405180910390f35b34801561023257600080fd5b5061023b6111db565b6040516102489190611d72565b60405180910390f35b34801561025d57600080fd5b5061027860048036038101906102739190611e5f565b611548565b604051610286929190611f1f565b60405180910390f35b60008060003373ffffffffffffffffffffffffffffffffffffffff1673ffffffffffffffffffffffffffffffffffffffff16815260200190815260200160002060030154905090565b606060026000838152602001908152602001600020600201805480602002602001604051908101604052809291908181526020016000905b8282101561047a57838290600052602060002090600402016040518060800160405290816000820154815260200160018201805461034d90611f85565b80601f016020809104026020016040519081016040528092919081815260200182805461037990611f85565b80156103c65780601f1061039b576101008083540402835291602001916103c6565b820191906000526020600020905b8154815290600101906020018083116103a957829003601f168201915b505050505081526020016002820180546103df90611f85565b80601f016020809104026020016040519081016040528092919081815260200182805461040b90611f85565b80156104585780601f1061042d57610100808354040283529160200191610458565b820191906000526020600020905b81548152906001019060200180831161043b57829003601f168201915b5050505050815260200160038201548152505081526020019060010190610310565b505050509050919050565b6000338260405160200161049a929190611fc5565b604051602081830303815290604052805190602001209050600015156104bf826110fb565b1515146104cb57600080fd5b6000600260008381526020019081526020016000209050818160000181905550828160010190816104fc91906121a1565b506000803373ffffffffffffffffffffffffffffffffffffffff1673ffffffffffffffffffffffffffffffffffffffff1681526020019081526020016000206000018290806001815401808255809150506001900390600052602060002001600090919091909150556003829080600181540180825580915050600190039060005260206000200160009091909190915055336002600084815260200190815260200160002060030160006101000a81548173ffffffffffffffffffffffffffffffffffffffff021916908373ffffffffffffffffffffffffffffffffffffffff1602179055507f3f422a27dd371a55b67bb4e6a3de5d244251eee4b59af2c70c52e891a2054d9c8160000154843360405161061a93929190612282565b60405180910390a1505050565b606060008060003373ffffffffffffffffffffffffffffffffffffffff1673ffffffffffffffffffffffffffffffffffffffff1681526020019081526020016000206000018054806020026020016040519081016040528092919081815260200182805480156106b657602002820191906000526020600020905b8154815260200190600101908083116106a2575b505050505090506000815167ffffffffffffffff8111156106da576106d96119fc565b5b60405190808252806020026020018201604052801561071357816020015b6107006116f1565b8152602001906001900390816106f85790505b50905060005b8251811015610a145760026000848381518110610739576107386122c0565b5b602002602001015181526020019081526020016000206040518060800160405290816000820154815260200160018201805461077490611f85565b80601f01602080910402602001604051908101604052809291908181526020018280546107a090611f85565b80156107ed5780601f106107c2576101008083540402835291602001916107ed565b820191906000526020600020905b8154815290600101906020018083116107d057829003601f168201915b5050505050815260200160028201805480602002602001604051908101604052809291908181526020016000905b8282101561098557838290600052602060002090600402016040518060800160405290816000820154815260200160018201805461085890611f85565b80601f016020809104026020016040519081016040528092919081815260200182805461088490611f85565b80156108d15780601f106108a6576101008083540402835291602001916108d1565b820191906000526020600020905b8154815290600101906020018083116108b457829003601f168201915b505050505081526020016002820180546108ea90611f85565b80601f016020809104026020016040519081016040528092919081815260200182805461091690611f85565b80156109635780601f1061093857610100808354040283529160200191610963565b820191906000526020600020905b81548152906001019060200180831161094657829003601f168201915b505050505081526020016003820154815250508152602001906001019061081b565b5050505081526020016003820160009054906101000a900473ffffffffffffffffffffffffffffffffffffffff1673ffffffffffffffffffffffffffffffffffffffff1673ffffffffffffffffffffffffffffffffffffffff16815250508282815181106109f6576109f56122c0565b5b60200260200101819052508080610a0c9061231e565b915050610719565b50809250505090565b60011515610a2a856110fb565b151514610a3657600080fd5b610a3e611732565b83816020018190525082816040018190525081816060018181525050600260008681526020019081526020016000206002018054905081600001818152505060026000868152602001908152602001600020600201819080600181540180825580915050600190039060005260206000209060040201600090919091909150600082015181600001556020820151816001019081610adc91906121a1565b506040820151816002019081610af291906121a1565b506060820151816003015550506000803373ffffffffffffffffffffffffffffffffffffffff1673ffffffffffffffffffffffffffffffffffffffff1681526020019081526020016000206001016000868152602001908152602001600020816000015190806001815401808255809150506001900390600052602060002001600090919091909150557f2e2455984574a739512290a7289216efc2bf1d3d069ae64a3bb6d71e945ba96a85826000015186604051610bb393929190612366565b60405180910390a15050505050565b60008060003373ffffffffffffffffffffffffffffffffffffffff1673ffffffffffffffffffffffffffffffffffffffff16815260200190815260200160002060030154905060008060003373ffffffffffffffffffffffffffffffffffffffff1673ffffffffffffffffffffffffffffffffffffffff168152602001908152602001600020600301819055503373ffffffffffffffffffffffffffffffffffffffff166108fc829081150290604051600060405180830381858888f19350505050158015610c95573d6000803e3d6000fd5b5050565b6000600260008481526020019081526020016000206002018281548110610cc357610cc26122c0565b5b906000526020600020906004020160405180608001604052908160008201548152602001600182018054610cf690611f85565b80601f0160208091040260200160405190810160405280929190818152602001828054610d2290611f85565b8015610d6f5780601f10610d4457610100808354040283529160200191610d6f565b820191906000526020600020905b815481529060010190602001808311610d5257829003601f168201915b50505050508152602001600282018054610d8890611f85565b80601f0160208091040260200160405190810160405280929190818152602001828054610db490611f85565b8015610e015780601f10610dd657610100808354040283529160200191610e01565b820191906000526020600020905b815481529060010190602001808311610de457829003601f168201915b5050505050815260200160038201548152505090508060600151341015610e5d576040517f08c379a0000000000000000000000000000000000000000000000000000000008152600401610e54906123f0565b60405180910390fd5b60001515610e6b8484610ff8565b151514610ead576040517f08c379a0000000000000000000000000000000000000000000000000000000008152600401610ea49061245c565b60405180910390fd5b80606001516000806002600087815260200190815260200160002060030160009054906101000a900473ffffffffffffffffffffffffffffffffffffffff1673ffffffffffffffffffffffffffffffffffffffff1673ffffffffffffffffffffffffffffffffffffffff1681526020019081526020016000206003016000828254610f38919061247c565b925050819055506000803373ffffffffffffffffffffffffffffffffffffffff1673ffffffffffffffffffffffffffffffffffffffff16815260200190815260200160002060010160008481526020019081526020016000208290806001815401808255809150506001900390600052602060002001600090919091909150557f18701575ea2164c922bc5631ae86299765b214b7a71ea435d9223dab2274aeb8838333604051610feb939291906124b0565b60405180910390a1505050565b600080600090505b6000803373ffffffffffffffffffffffffffffffffffffffff1673ffffffffffffffffffffffffffffffffffffffff1681526020019081526020016000206001016000858152602001908152602001600020805490508110156110ef57826000803373ffffffffffffffffffffffffffffffffffffffff1673ffffffffffffffffffffffffffffffffffffffff168152602001908152602001600020600101600086815260200190815260200160002082815481106110c2576110c16122c0565b5b9060005260206000200154036110dc5760019150506110f5565b80806110e79061231e565b915050611000565b50600090505b92915050565b600080600090505b6000803373ffffffffffffffffffffffffffffffffffffffff1673ffffffffffffffffffffffffffffffffffffffff168152602001908152602001600020600001805490508110156111d057826000803373ffffffffffffffffffffffffffffffffffffffff1673ffffffffffffffffffffffffffffffffffffffff16815260200190815260200160002060000182815481106111a3576111a26122c0565b5b9060005260206000200154036111bd5760019150506111d6565b80806111c89061231e565b915050611103565b50600090505b919050565b6060600060038054905067ffffffffffffffff8111156111fe576111fd6119fc565b5b60405190808252806020026020018201604052801561123757816020015b6112246116f1565b81526020019060019003908161121c5790505b50905060005b600380549050811015611540576002600060038381548110611262576112616122c0565b5b90600052602060002001548152602001908152602001600020604051806080016040529081600082015481526020016001820180546112a090611f85565b80601f01602080910402602001604051908101604052809291908181526020018280546112cc90611f85565b80156113195780601f106112ee57610100808354040283529160200191611319565b820191906000526020600020905b8154815290600101906020018083116112fc57829003601f168201915b5050505050815260200160028201805480602002602001604051908101604052809291908181526020016000905b828210156114b157838290600052602060002090600402016040518060800160405290816000820154815260200160018201805461138490611f85565b80601f01602080910402602001604051908101604052809291908181526020018280546113b090611f85565b80156113fd5780601f106113d2576101008083540402835291602001916113fd565b820191906000526020600020905b8154815290600101906020018083116113e057829003601f168201915b5050505050815260200160028201805461141690611f85565b80601f016020809104026020016040519081016040528092919081815260200182805461144290611f85565b801561148f5780601f106114645761010080835404028352916020019161148f565b820191906000526020600020905b81548152906001019060200180831161147257829003601f168201915b5050505050815260200160038201548152505081526020019060010190611347565b5050505081526020016003820160009054906101000a900473ffffffffffffffffffffffffffffffffffffffff1673ffffffffffffffffffffffffffffffffffffffff1673ffffffffffffffffffffffffffffffffffffffff1681525050828281518110611522576115216122c0565b5b602002602001018190525080806115389061231e565b91505061123d565b508091505090565b6060806115558484610ff8565b61155e57600080fd5b6000600260008681526020019081526020016000206002018481548110611588576115876122c0565b5b9060005260206000209060040201604051806080016040529081600082015481526020016001820180546115bb90611f85565b80601f01602080910402602001604051908101604052809291908181526020018280546115e790611f85565b80156116345780601f1061160957610100808354040283529160200191611634565b820191906000526020600020905b81548152906001019060200180831161161757829003601f168201915b5050505050815260200160028201805461164d90611f85565b80601f016020809104026020016040519081016040528092919081815260200182805461167990611f85565b80156116c65780601f1061169b576101008083540402835291602001916116c6565b820191906000526020600020905b8154815290600101906020018083116116a957829003601f168201915b5050505050815260200160038201548152505090508060200151816040015192509250509250929050565b6040518060800160405280600080191681526020016060815260200160608152602001600073ffffffffffffffffffffffffffffffffffffffff1681525090565b6040518060800160405280600081526020016060815260200160608152602001600081525090565b6000819050919050565b61176d8161175a565b82525050565b60006020820190506117886000830184611764565b92915050565b6000604051905090565b600080fd5b600080fd5b6000819050919050565b6117b5816117a2565b81146117c057600080fd5b50565b6000813590506117d2816117ac565b92915050565b6000602082840312156117ee576117ed611798565b5b60006117fc848285016117c3565b91505092915050565b600081519050919050565b600082825260208201905092915050565b6000819050602082019050919050565b61183a8161175a565b82525050565b600081519050919050565b600082825260208201905092915050565b60005b8381101561187a57808201518184015260208101905061185f565b60008484015250505050565b6000601f19601f8301169050919050565b60006118a282611840565b6118ac818561184b565b93506118bc81856020860161185c565b6118c581611886565b840191505092915050565b60006080830160008301516118e86000860182611831565b50602083015184820360208601526119008282611897565b9150506040830151848203604086015261191a8282611897565b915050606083015161192f6060860182611831565b508091505092915050565b600061194683836118d0565b905092915050565b6000602082019050919050565b600061196682611805565b6119708185611810565b93508360208202850161198285611821565b8060005b858110156119be578484038952815161199f858261193a565b94506119aa8361194e565b925060208a01995050600181019050611986565b50829750879550505050505092915050565b600060208201905081810360008301526119ea818461195b565b905092915050565b600080fd5b600080fd5b7f4e487b7100000000000000000000000000000000000000000000000000000000600052604160045260246000fd5b611a3482611886565b810181811067ffffffffffffffff82111715611a5357611a526119fc565b5b80604052505050565b6000611a6661178e565b9050611a728282611a2b565b919050565b600067ffffffffffffffff821115611a9257611a916119fc565b5b611a9b82611886565b9050602081019050919050565b82818337600083830152505050565b6000611aca611ac584611a77565b611a5c565b905082815260208101848484011115611ae657611ae56119f7565b5b611af1848285611aa8565b509392505050565b600082601f830112611b0e57611b0d6119f2565b5b8135611b1e848260208601611ab7565b91505092915050565b600060208284031215611b3d57611b3c611798565b5b600082013567ffffffffffffffff811115611b5b57611b5a61179d565b5b611b6784828501611af9565b91505092915050565b600081519050919050565b600082825260208201905092915050565b6000819050602082019050919050565b611ba5816117a2565b82525050565b600082825260208201905092915050565b6000611bc782611805565b611bd18185611bab565b935083602082028501611be385611821565b8060005b85811015611c1f5784840389528151611c00858261193a565b9450611c0b8361194e565b925060208a01995050600181019050611be7565b50829750879550505050505092915050565b600073ffffffffffffffffffffffffffffffffffffffff82169050919050565b6000611c5c82611c31565b9050919050565b611c6c81611c51565b82525050565b6000608083016000830151611c8a6000860182611b9c565b5060208301518482036020860152611ca28282611897565b91505060408301518482036040860152611cbc8282611bbc565b9150506060830151611cd16060860182611c63565b508091505092915050565b6000611ce88383611c72565b905092915050565b6000602082019050919050565b6000611d0882611b70565b611d128185611b7b565b935083602082028501611d2485611b8c565b8060005b85811015611d605784840389528151611d418582611cdc565b9450611d4c83611cf0565b925060208a01995050600181019050611d28565b50829750879550505050505092915050565b60006020820190508181036000830152611d8c8184611cfd565b905092915050565b611d9d8161175a565b8114611da857600080fd5b50565b600081359050611dba81611d94565b92915050565b60008060008060808587031215611dda57611dd9611798565b5b6000611de8878288016117c3565b945050602085013567ffffffffffffffff811115611e0957611e0861179d565b5b611e1587828801611af9565b935050604085013567ffffffffffffffff811115611e3657611e3561179d565b5b611e4287828801611af9565b9250506060611e5387828801611dab565b91505092959194509250565b60008060408385031215611e7657611e75611798565b5b6000611e84858286016117c3565b9250506020611e9585828601611dab565b9150509250929050565b60008115159050919050565b611eb481611e9f565b82525050565b6000602082019050611ecf6000830184611eab565b92915050565b600082825260208201905092915050565b6000611ef182611840565b611efb8185611ed5565b9350611f0b81856020860161185c565b611f1481611886565b840191505092915050565b60006040820190508181036000830152611f398185611ee6565b90508181036020830152611f4d8184611ee6565b90509392505050565b7f4e487b7100000000000000000000000000000000000000000000000000000000600052602260045260246000fd5b60006002820490506001821680611f9d57607f821691505b602082108103611fb057611faf611f56565b5b50919050565b611fbf81611c51565b82525050565b6000604082019050611fda6000830185611fb6565b8181036020830152611fec8184611ee6565b90509392505050565b60008190508160005260206000209050919050565b60006020601f8301049050919050565b600082821b905092915050565b6000600883026120577fffffffffffffffffffffffffffffffffffffffffffffffffffffffffffffffff8261201a565b612061868361201a565b95508019841693508086168417925050509392505050565b6000819050919050565b600061209e6120996120948461175a565b612079565b61175a565b9050919050565b6000819050919050565b6120b883612083565b6120cc6120c4826120a5565b848454612027565b825550505050565b600090565b6120e16120d4565b6120ec8184846120af565b505050565b5b81811015612110576121056000826120d9565b6001810190506120f2565b5050565b601f8211156121555761212681611ff5565b61212f8461200a565b8101602085101561213e578190505b61215261214a8561200a565b8301826120f1565b50505b505050565b600082821c905092915050565b60006121786000198460080261215a565b1980831691505092915050565b60006121918383612167565b9150826002028217905092915050565b6121aa82611840565b67ffffffffffffffff8111156121c3576121c26119fc565b5b6121cd8254611f85565b6121d8828285612114565b600060209050601f83116001811461220b57600084156121f9578287015190505b6122038582612185565b86555061226b565b601f19841661221986611ff5565b60005b828110156122415784890151825560018201915060208501945060208101905061221c565b8683101561225e578489015161225a601f891682612167565b8355505b6001600288020188555050505b505050505050565b61227c816117a2565b82525050565b60006060820190506122976000830186612273565b81810360208301526122a98185611ee6565b90506122b86040830184611fb6565b949350505050565b7f4e487b7100000000000000000000000000000000000000000000000000000000600052603260045260246000fd5b7f4e487b7100000000000000000000000000000000000000000000000000000000600052601160045260246000fd5b60006123298261175a565b91507fffffffffffffffffffffffffffffffffffffffffffffffffffffffffffffffff820361235b5761235a6122ef565b5b600182019050919050565b600060608201905061237b6000830186612273565b6123886020830185611764565b818103604083015261239a8184611ee6565b9050949350505050565b7f4e6f7420656e6f756768206d6f6f6c6168000000000000000000000000000000600082015250565b60006123da601183611ed5565b91506123e5826123a4565b602082019050919050565b60006020820190508181036000830152612409816123cd565b9050919050565b7f596f7520616c7265616479206f776e2074686520636861707465722100000000600082015250565b6000612446601c83611ed5565b915061245182612410565b602082019050919050565b6000602082019050818103600083015261247581612439565b9050919050565b60006124878261175a565b91506124928361175a565b92508282019050808211156124aa576124a96122ef565b5b92915050565b60006060820190506124c56000830186612273565b6124d26020830185611764565b6124df6040830184611fb6565b94935050505056fea26469706673582212202fd3758bf265aff250055a5035e4820eeab0469efdc8383bcedcf294df6cc7f464736f6c63430008110033",
  "immutableReferences": {},
  "source": "// SPDX-License-Identifier: GPL-3.0\r\n\r\npragma solidity >=0.8.0;\r\n\r\ncontract Bookstore{\r\n    //Structures\r\n    struct ownedItem {\r\n        bytes32 [] bookAuthorship; //Stores the book ids of authored books\r\n        mapping (bytes32 => uint[]) unlockedChapters; //Unlocked Chapters for Book A\r\n        bool isAdmin;\r\n        uint balance; //Balance in wei, convert to ether\r\n    }\r\n\r\n    struct Chapter{\r\n        uint chapterID; //unique to book\r\n        string title; //\r\n        string text; //Temporary, replace later as it is public to everyone\r\n        uint cost;\r\n    }\r\n\r\n    struct Books{\r\n        bytes32 bookID;\r\n        string title;   //Temporary, remove strings, bookID is enough\r\n        Chapter [] chapters;\r\n        address author;\r\n    }\r\n\r\n    //State Variables\r\n    mapping (address => ownedItem) accountOwnership;\r\n    address payable owner;\r\n    mapping (bytes32 => Books) mapOfBooks;\r\n    bytes32 [] listOfBookIDs;\r\n\r\n    //Events\r\n    event bookCreated(bytes32, string, address); //ID, Title, Author\r\n    event chapterCreated(bytes32, uint, string); //BookID, ChapterID, Title\r\n    event chapterBought(bytes32, uint, address); //BookID, ChapterID, address of buyer\r\n    //Modifiers\r\n    modifier isOwner(){\r\n        require(msg.sender == owner);\r\n        _;\r\n    }\r\n\r\n    modifier isAdmin(){\r\n        require( accountOwnership[msg.sender].isAdmin == true);\r\n        _;\r\n    }\r\n    // Functions\r\n    //Checks if the msg.sender is the author of an inputted book ID\r\n    function checkIfAuthor(bytes32 bookID) public view  returns(bool){\r\n        for (uint i = 0; i < accountOwnership[msg.sender].bookAuthorship.length; i++){\r\n            if(accountOwnership[msg.sender].bookAuthorship[i] == bookID){\r\n                return true;\r\n            }\r\n        }\r\n        return false;\r\n    }\r\n    \r\n    //Checks if the msg.sender owns a requested chapter\r\n    function checkIfChapterOwned(bytes32 bookID, uint chapterID) public view returns(bool){\r\n        //accountOwnership[msg.sender].unlockedChapters[bookID];   //gives me the array of unlocked chapters\r\n        for(uint i = 0; i < accountOwnership[msg.sender].unlockedChapters[bookID].length; i++){\r\n            if(accountOwnership[msg.sender].unlockedChapters[bookID][i] == chapterID){\r\n                return true;\r\n            }\r\n        }\r\n        return false;\r\n    }\r\n    \r\n    //An author adds a Book\r\n    function authorBook(string memory title) public {\r\n        bytes32 result = keccak256(abi.encode(msg.sender, title));\r\n        //Require that the book doesn't already exist (unique to writer, multiple writers can have the same titles for their books)\r\n        require(checkIfAuthor(result) ==  false);\r\n        //\r\n        Books storage newBook = mapOfBooks[result];\r\n        newBook.bookID = result;\r\n        newBook.title = title;\r\n    //    mapOfBooks[result] = newBook;\r\n        accountOwnership[msg.sender].bookAuthorship.push(result);\r\n        listOfBookIDs.push(result);\r\n        mapOfBooks[result].author = msg.sender;\r\n        emit bookCreated(newBook.bookID, title, msg.sender);\r\n    }\r\n\r\n    //An author adds a chapter to a specified book\r\n    function authorChapter(bytes32 bookID, string memory title, string memory text, uint cost) public{\r\n        require(checkIfAuthor(bookID) == true);\r\n        Chapter memory newChapter;\r\n        newChapter.title = title;\r\n        newChapter.text =  text;\r\n        newChapter.cost = cost;\r\n        newChapter.chapterID = mapOfBooks[bookID].chapters.length;\r\n        mapOfBooks[bookID].chapters.push(newChapter);\r\n        accountOwnership[msg.sender].unlockedChapters[bookID].push(newChapter.chapterID);\r\n        emit chapterCreated(bookID, newChapter.chapterID, title);\r\n    }\r\n\r\n    //A reader buys a chapter to a book\r\n    function buyChapter(bytes32 bookID, uint chapterID) public payable{\r\n        //Checks if the chapter actually exists\r\n        Chapter memory chapter = mapOfBooks[bookID].chapters[chapterID];\r\n        require(msg.value >= chapter.cost, \"Not enough moolah\");\r\n        //Make sure the chapter isn't already owned\r\n        require(checkIfChapterOwned(bookID, chapterID) == false, \"You already own the chapter!\");\r\n        //\r\n        accountOwnership[mapOfBooks[bookID].author].balance += chapter.cost;\r\n        accountOwnership[msg.sender].unlockedChapters[bookID].push(chapterID);\r\n        emit chapterBought(bookID, chapterID, msg.sender);\r\n    }\r\n    \r\n    //An author decides to withdraw their balance.\r\n    function withdrawBalance() public payable {\r\n        uint bal = accountOwnership[msg.sender].balance;\r\n        accountOwnership[msg.sender].balance = 0;\r\n        payable(msg.sender).transfer(bal);\r\n    }\r\n\r\n    //Getter functions\r\n    function getBookChapters(bytes32 bookID) public view returns(Chapter[] memory){\r\n        return mapOfBooks[bookID].chapters;\r\n    }\r\n\r\n\r\n    function readChapter(bytes32 bookID, uint chapterID) public view returns(string memory, string memory) {\r\n        require(checkIfChapterOwned(bookID, chapterID));\r\n        Chapter memory chapter = mapOfBooks[bookID].chapters[chapterID];\r\n        return(chapter.title, chapter.text);\r\n    }\r\n\r\n    function getBooksAuthored() public view returns (Books [] memory){\r\n        bytes32 [] memory arrayOfOwnedBooks = accountOwnership[msg.sender].bookAuthorship;\r\n        Books [] memory bookArray = new Books[](arrayOfOwnedBooks.length);\r\n        for(uint i = 0; i < arrayOfOwnedBooks.length; i++){\r\n            bookArray[i] = (mapOfBooks[arrayOfOwnedBooks[i]]);\r\n        }\r\n        return bookArray;\r\n    }\r\n    \r\n    function getBalance () public view returns(uint){\r\n        return accountOwnership[msg.sender].balance;\r\n    }\r\n    //Get all of the books ever written\r\n    function getListOfBooks() public view returns (Books[] memory){\r\n        Books[] memory bookArray = new Books[](listOfBookIDs.length);\r\n        for(uint i = 0; i < listOfBookIDs.length; i++){\r\n            bookArray[i] = mapOfBooks[listOfBookIDs[i]];\r\n        }\r\n        return bookArray;\r\n    }    \r\n}",
  "sourcePath": "C:\\Users\\Aasim Merchant\\Desktop\\Bookstore\\bookstore-contract\\contracts\\Bookstore.sol",
  "compiler": {
    "name": "solc",
    "version": "0.8.17+commit.8df45f5f.Emscripten.clang"
  },
  "schemaVersion": "3.4.16",
  "updatedAt": "2023-12-07T20:04:38.048Z",
  "networkType": "ethereum",
  "devdoc": {
    "kind": "dev",
    "methods": {},
    "version": 1
  },
  "userdoc": {
    "kind": "user",
    "methods": {},
    "version": 1
  }
}